:1000000000308A0018280000213084008313000883
:10001000031917280630F800F701F70B0D28F80B25
:100020000C287B30F700F70B1328800B0A280800F8
:1000300003081F39830083161F149F141F159F1177
:1000400007309C0083138312881483168810831250
:1000500008118316081183128815831688118312DC
:1000600008128316081246308312A100042088105B
:1000700083168810831208158316081183128815B9
:1000800083168811831208128316081246308312D1
:10009000A100042088108316881083120815831687
:1000A000081183128811831688118312081683168B
:1000B000081246308312A100042088148316881089
:1000C0008312081183160811831288118316881170
:1000D000831208168316081246308312A1000420EA
:0400E000242863006D
:02400E00323F3F
:00000001FF
;PIC16F877A
;CRC=A497  CREATED="23-Oct-17 16:52"
